:100000000C9400030C94AF070C9488070C944108DF
:100010000C9441080C9441080C9428030C94280378
:100020000C9428030C94D6070C9428030C942803F2
:100030000C9428030C9428030C9428030C94280394
:100040000C943E070C9428030C94A7050C9481058E
:100050000C9428030C9428030C9428030C94280374
:100060000C94BB080C9428034154202B20434D478B
:1000700046203D20310041542B435343533D2247FA
:10008000534D220041542B434C49503D31004154C3
:100090002B434D47463D310041542B4346554E3D81
:1000A0003100415445300041542B4950523D3139C3
:1000B000323030004154004154004154004154005A
:1000C00041540041542B47534E0041542B43434964
:1000D000440041542B435245473F0041542B435366
:1000E00051004D454741464F4E00696E7465726E32
:1000F000657400696E7465726E6574004D65676144
:10010000004265656C696E6500696E7465726E6546
:10011000742E6265656C696E652E72750062656528
:100120006C696E65006265656C696E6500696E7408
:1001300065726E65742E6265656C696E652E72758A
:1001400000426565004D545300696E7465726E65BA
:10015000742E6D74732E7275006D7473006D7473EC
:1001600000696E7465726E65742E6D74732E72758F
:10017000004D54530041542B434F50533F004750C0
:10018000525320636F6E6E656374202E2E0072735F
:100190007369202E2E000A52656769737465726553
:1001A0006420726F616D696E67000A556E6B6E6FC9
:1001B000776E000A44656E696564000A4E6F7420AC
:1001C000726567697374657265642028736561720E
:1001D0006368696E6729000A52656769737465729E
:1001E00065642028686F6D6529000A4E6F7420725F
:1001F000656769737465726564003A20000A4E652C
:1002000074776F726B2073746174757320000A5376
:10021000494D20434349443A000A494D45493A0073
:100220002E000A53657474696E67207570206D6FB7
:1002300062696C65206E6574776F726B2E2E2E006E
:100240004F4B00436F756C646E27742066696E6453
:10025000206D6F64756C65204750525300506F7766
:1002600065722053494D383030204F6E00496E6919
:100270007469616C697A696E672E2E2E2E284D6125
:10028000792074616B6520352D3130207365636F83
:100290006E647329000A53494D38303020736574F9
:1002A000757020656E6400416C6C20534D53206462
:1002B000656C657465004F4B000A66726565206D5C
:1002C000656D6F72793A2000496E74657276616C63
:1002D000207365633A000A2A2A20576174636864B0
:1002E0006F67206F6E202A2A005761746368646FFD
:1002F00067206F666600436C656172204545505209
:100300004F4D20456E6400546573742057617463CB
:1003100068646F6700537461727420636C65617206
:1003200020454550524F4D000A53494D383030203A
:1003300073657475702073746172740053746172A4
:100340007420005374617274204F55540041542B33
:10035000434D47523D3100556E6B6E6F776E206393
:100360006F6D6D616E6400446576696365204F460C
:1003700046004465766F666600446576696365206D
:100380004F4E004465766F6E00454550524F4D20EC
:100390004F464600456F666600454550524F4D201A
:1003A0004F4E00456F6E0054696D656F6666005470
:1003B000696D656F66660052657374617274005290
:1003C0006573746172740054696D6573657400417E
:1003D000542B434D47443D3100534D532064656CCD
:1003E0006574650050686F6E652069676E6F726531
:1003F0006400436F6D6D616E64612074656C3100E3
:10040000534D532064656C65746500534D533A0039
:10041000446576696365204F4E004465766963657F
:10042000204F464600496E74657276616C20706993
:100430006E67207365633A000A66726565206D65B4
:100440006D6F72793A2000496E74657276616C2026
:100450007365633A001F1C1F1E1F1E1F1F1E1F1ED9
:100460001F41542B43494943520041542B43535499
:10047000543D22696E7465726E6574220041542B7E
:10048000435354543D22696E7465726E65742E62D6
:1004900065656C696E652E7275220041542B43535D
:1004A00054543D22696E7465726E65742E6D74735A
:1004B0002E727522000A4E6F204750525320636FF0
:1004C0006E6E656374696F6E004552524F52003E06
:1004D0000041542B43474154543F000A4E6F20477C
:1004E00050525320636F6E6E656374696F6E004582
:1004F00052524F520041542B435245473F002E2E3B
:10050000204F6B21002E2E2066616C736521000A3E
:1005100050696E67202D3E20002E2E204F6B21004B
:1005200050696E67202D3E20000000000024002747
:10053000002A0041542B434D4744413D2244454C41
:1005400020414C4C2200534D532073656E64206350
:100550006F6D706C65746500534D532073656E64E8
:1005600020737461727465640041542B4349505385
:100570004855540041542B43495053485554004169
:10058000542B43495050494E473D220041542B4380
:10059000494653520041542B434950534855540047
:1005A00041542B485454505445524D000000000013
:1005B000250028002B000000000023002600290051
:1005C00004040404040404040202020202020303F9
:1005D0000303030301020408102040800102040801
:1005E0001020010204081020000000080002010091
:1005F000000304070000000000000000D9209D2037
:1006000011241FBECFEFD8E0DEBFCDBF12E0A0E0C7
:10061000B1E0E8E9FAE402C005900D92AA36B1070C
:10062000D9F725E0AAE6B2E001C01D92AA35B207CB
:10063000E1F712E0CFEFD2E004C02197FE010E9463
:100640001A24CE3FD107C9F70E94AF150C943F255D
:100650000C940000FC01918D828D981761F0828DC1
:10066000DF01A80FB11D5D968C91928D9F5F9F73E6
:10067000928F90E008958FEF9FEF0895FC01918D88
:10068000828D981731F0828DE80FF11D858D90E0F5
:1006900008958FEF9FEF0895FC01918D228D892F92
:1006A00090E0805C9F4F821B91098F73992708957A
:1006B00085E993E00E944C0321E0892B09F420E0B6
:1006C000822F0895FC01848DDF01A80FB11DA35A6C
:1006D000BF4F2C91848D90E001968F739927848F62
:1006E000A689B7892C93A089B1898C9180648C9359
:1006F000938D848D981306C00288F389E02D808144
:100700008F7D80830895EF92FF920F931F93CF9375
:10071000DF93EC0181E0888F9B8D8C8D981305C051
:10072000E889F989808185FD24C0F62E0B8D10E0C3
:100730000F5F1F4F0F731127E02E8C8DE8120CC036
:100740000FB607FCFACFE889F989808185FFF5CFDC
:10075000CE010E946203F1CF8B8DFE01E80FF11DE7
:10076000E35AFF4FF0820B8FEA89FB898081806218
:1007700007C0EE89FF896083E889F98980818064F8
:10078000808381E090E0DF91CF911F910F91FF90E6
:10079000EF900895CF93DF93EC01888D8823C9F003
:1007A000EA89FB89808185FD05C0A889B9898C917A
:1007B00086FD0FC00FB607FCF5CF808185FFF2CF15
:1007C000A889B9898C9185FFEDCFCE010E94620383
:1007D000E7CFDF91CF91089580E090E0892B29F059
:1007E0000E94580381110C94000008953FB7F894BB
:1007F0008091240390912503A0912603B0912703B3
:1008000026B5A89B05C02F3F19F00196A11DB11D6B
:100810003FBFBA2FA92F982F8827820F911DA11DA6
:10082000B11DBC01CD0142E0660F771F881F991FE3
:100830004A95D1F7089508952091790230917A026E
:100840002817390771F490917702809178029817F0
:1008500041F0E0917702F0E0E152FD4F808190E0BD
:1008600008958FEF9FEF089508951F93CF93DF931F
:10087000DC015C962D913C915D972115310539F491
:1008800081E090E013969C938E9312973DC0519611
:10089000ED91FC91529750969C915097892F80959D
:1008A0001FB75E964C915E9741FB772770F941FD2B
:1008B0006095F8944081772311F0492B01C04823BB
:1008C0004083E9012197F1F748E0508160FF02C0C1
:1008D000592B01C058235083E9012197F1F7669500
:1008E000415099F7772321F090818923808303C0B9
:1008F0008081982B90831FBF5C968D919C915D9712
:100900000197F1F721E030E0C901DF91CF911F910C
:1009100008952091790230917A022817390771F4ED
:10092000809178022091770290E0805C9F4F821B3B
:10093000910960E470E00E94E423089580E090E073
:1009400008952091790230917A0228173907B9F475
:100950009091770280917802981789F0E091770260
:10096000F0E0E152FD4F80812091770230E02F5F6F
:100970003F4F2F7333272093770290E008958FEF36
:100980009FEF089585ED8093BC008091BC0084FDAD
:10099000FCCF10926F0308954091BA02262F30E0E9
:1009A000240F311D21323105DCF420916F032430F6
:1009B000C9F4FC0180E090E0861758F43091BA0247
:1009C0002191DC01A856BD4FA30FB11D2C930196B8
:1009D000F3CF8091BA02680F6093BA0280E0089565
:1009E00081E0089582E008950895E0917103809177
:1009F0007003E81730F4F0E0EE58FC4F808190E08F
:100A000008958FEF9FEF0895909171038091700387
:100A1000981750F4E92FF0E0EE58FC4F208130E0B9
:100A20009F5F9093710302C02FEF3FEFC9010895BC
:100A30008091700390E020917103821B91090895C9
:100A4000CF92DF92EF92FF920F931F93CF93DF939A
:100A50007C01262F972F8A0180919403882391F09F
:100A6000C62FD72F6E01C40ED51ECC15DD0571F033
:100A70006991D701ED91FC910190F081E02DC701C2
:100A80000995F3CF642F822F0E94CC04C801DF9117
:100A9000CF911F910F91FF90EF90DF90CF9008952D
:100AA000CF93DF931F92CDB7DEB769832091940374
:100AB0002223D1F020919203203240F021E030E057
:100AC000FC013383228380E090E015C08091930382
:100AD000E82FF0E0E75DFC4F998190838F5F809372
:100AE00093038093920305C061E0CE0101960E94BA
:100AF000CC0481E090E00F90DF91CF9108950E94A7
:100B0000EA241F920F920FB60F9211242F933F9356
:100B10004F935F936F937F938F939F93AF93BF9305
:100B2000EF93FF9385E993E00E946203FF91EF91B9
:100B3000BF91AF919F918F917F916F915F914F91F5
:100B40003F912F910F900FBE0F901F9018951F92FD
:100B50000F920FB60F9211242F938F939F93EF93C1
:100B6000FF93E091A503F091A6038081E091AB0390
:100B7000F091AC0382FD12C090818091AE038F5F33
:100B80008F732091AF03821751F0E091AE03F0E034
:100B9000EB56FC4F958F8093AE0301C08081FF918F
:100BA000EF919F918F912F910F900FBE0F901F90FB
:100BB0001895833081F028F4813099F08230A1F0CB
:100BC00008958730A9F08830B9F08430D1F480914D
:100BD00080008F7D03C0809180008F77809380009C
:100BE000089584B58F7702C084B58F7D84BD089544
:100BF0008091B0008F7703C08091B0008F7D80938B
:100C0000B00008951F93CF93DF93282F30E0F901B0
:100C1000E851FA4F8491F901EC52FA4FD491F9015D
:100C2000E054FA4FC491CC23C9F0162F81110E94D1
:100C3000D905EC2FF0E0EE0FFF1FE455FA4FA59118
:100C4000B4918FB7F894111105C09C91ED2FE095E8
:100C5000E92302C0EC91ED2BEC938FBFDF91CF9194
:100C60001F910895CF93DF9390E0FC01EC52FA4F6F
:100C70002491FC01E054FA4F8491882361F190E0C3
:100C8000880F991FFC01E75DFA4FC591D491FC01D3
:100C9000E455FA4FA591B491611109C09FB7F8943A
:100CA0008881209582238883EC912E230BC06230AB
:100CB00061F49FB7F8943881822F809583238883CD
:100CC000EC912E2B2C939FBF06C08FB7F894E88130
:100CD0002E2B28838FBFDF91CF9108958F929F9203
:100CE000AF92BF92CF92DF92EF92FF926B017C01A5
:100CF0000E94F6034B015C01C114D104E104F1042C
:100D0000F1F00E94F603DC01CB0188199909AA09C8
:100D1000BB09883E9340A105B10570F321E0C21ADA
:100D2000D108E108F10888EE880E83E0981EA11C26
:100D3000B11CC114D104E104F10419F7DDCFFF9017
:100D4000EF90DF90CF90BF90AF909F908F900895DD
:100D50002FB7F894609120037091210380912203B2
:100D6000909123032FBF08950F931F930E94A8060D
:100D7000A8950091940210919502209196023091CD
:100D800097029B01201B310B309393022093920218
:100D900060939402709395028093960290939702C9
:100DA0008091920290919302803F9B403CF0809111
:100DB0009202909193028E3F9B407CF08091920230
:100DC0009091930288359340E4F080919202909143
:100DD00093028636934054F114C082E090E09093E1
:100DE0007C0280937B028091900290919102019607
:100DF0009093910280939002809190029091910241
:100E000028C080919202909193028F3591409CF17D
:100E100080919202909193028237914064F583E031
:100E200090E090937C0280937B0225C081E090E06B
:100E300090937C0280937B0280918E0290918F022E
:100E4000019690938F0280938E0280918E029091F2
:100E50008F028B3F91057CF010927C0210927B02F6
:100E6000809170008E7F809370008091F10490914A
:100E7000F2040E94E70D1F910F9108951F920F92A7
:100E80000FB60F9211242F933F938F939F93AF939D
:100E9000BF938091200390912103A0912203B091F0
:100EA000230330911F0323E0230F2D3720F40196F5
:100EB000A11DB11D05C026E8230F0296A11DB11D7D
:100EC00020931F038093200390932103A093220378
:100ED000B09323038091240390912503A0912603CE
:100EE000B09127030196A11DB11D80932403909317
:100EF0002503A0932603B0932703BF91AF919F9141
:100F00008F913F912F910F900FBE0F901F901895CA
:100F10001F920F920FB60F9211242F933F934F936E
:100F20005F936F937F938F939F93AF93BF93EF9351
:100F3000FF93E0910201F09103010995FF91EF9178
:100F4000BF91AF919F918F917F916F915F914F91E1
:100F50003F912F910F900FBE0F901F9018951F92E9
:100F60000F920FB60F9211242F933F934F935F93DD
:100F70006F937F938F939F93AF93BF93EF93FF9361
:100F8000E0910001F09101010995FF91EF91BF916E
:100F9000AF919F918F917F916F915F914F913F9111
:100FA0002F910F900FBE0F901F9018951F920F92C8
:100FB0000FB60F9211242F933F934F935F936F932C
:100FC0007F938F939F93AF93BF93EF93FF93809102
:100FD0007002909171028093B2008091730290919F
:100FE0007402A0917502B09176020196A11DB11D07
:100FF0008093730290937402A0937502B09376026B
:101000004091730250917402609175027091760262
:1010100080916C0290916D02A0916E02B0916F026E
:10102000481759076A077B07B0F080917202811157
:1010300012C081E0809372021092730210927402C7
:101040001092750210927602E0916A02F0916B02A2
:10105000099510927202FF91EF91BF91AF919F910C
:101060008F917F916F915F914F913F912F910F9051
:101070000FBE0F901F901895682F82E394E00C9498
:1010800050051F920F920FB60F9211242F933F938A
:101090004F935F936F937F938F939F93AF93BF9380
:1010A000EF93FF93E0917902F0917A02309709F47F
:1010B00051C0968DA685B785858591FF04C09C910A
:1010C000892329F447C09C91892309F043C0A3894F
:1010D000B4899C918589809589238C938689978989
:1010E0000197F1F7608D718DA685B785558538E03C
:1010F00020E0CB010197F1F7822F90E0959587953D
:10110000282F4C91452309F02068315091F7868DA6
:1011100081FD20958091780290E001968F73992748
:1011200030917702381749F0A0917802B0E0A152CF
:10113000BD4F2C938093780203C0868D8160868F8B
:10114000828D938D0197F1F7A389B4899C9185894C
:10115000892B8C93FF91EF91BF91AF919F918F91CC
:101160007F916F915F914F913F912F910F900FBEA3
:101170000F901F9018951F920F920FB60F92112487
:101180002F933F934F935F936F937F938F939F938F
:10119000AF93BF93EF93FF938091B900887F803620
:1011A00009F49CC068F5883209F45BC090F4803182
:1011B00009F454C038F4882309F4F6C0883009F4DF
:1011C0004DC0F6C0883109F44CC0803209F45DC0CE
:1011D000EFC0803409F468C048F4803309F455C086
:1011E000883309F0E5C080936D03D8C0803509F4D9
:1011F0004FC0883509F45DC0883409F0D9C0D6C025
:10120000883909F4C7C0A8F4883709F467C038F4EE
:10121000883609F463C0803709F460C0C9C08838D3
:1012200009F4B8C0803909F45FC0803809F0C0C043
:101230005BC0803B09F486C038F4803A09F466C08C
:10124000883A09F47FC0B4C0803C09F4A7C0883C48
:1012500009F4A4C0883B09F48AC0AAC080916A033B
:1012600010C090916C0380916B03981770F5E0911A
:101270006C0381E08E0F80936C03F0E0E75BFC4F22
:1012800080818093BB0085EC86C080936D038EC007
:10129000E0916C0381E08E0F80936C038091BB0022
:1012A000F0E0E75BFC4F808390916C0380916B03CF
:1012B0006EC0E0916C0381E08E0F80936C0380918F
:1012C000BB00F0E0E75BFC4F808380916E038111EF
:1012D0006DC081E08093690384EA61C083E08093FC
:1012E0006F031092DE02CFCF8091DE02803208F0D1
:1012F00051C0E091DE0281E08E0F8093DE0280918A
:10130000BB00F0E0E254FD4F8083BDCF85EC8093BD
:10131000BC0010926F038091DE02803230F4E091C5
:10132000DE02F0E0E254FD4F10826091DE0270E0D8
:10133000E091BC02F091BD028EEB92E00995109213
:10134000DE0236C084E080936F031092BB021092DD
:10135000BA02E091B802F091B90209958091BA02FF
:10136000811105C081E08093BA0210929802E09149
:10137000BB0281E08E0F8093BB02F0E0E856FD4F88
:1013800080818093BB009091BB028091BA02981734
:1013900008F479CF85E88093BC000AC085EC80937F
:1013A000BC0010926F0304C010926D030E94C2042F
:1013B000FF91EF91BF91AF919F918F917F916F912D
:1013C0005F914F913F912F910F900FBE0F901F9003
:1013D000189510926F0381E080936E031092690359
:1013E00061E082E10E94020661E083E10E94020660
:1013F000E9EBF0E080818E7F808380818D7F808328
:1014000088E48093B80085E48093BC0008950C9430
:101410007123EF92FF920F931F93CF93DF93CDB77A
:10142000DEB72C970FB6F894DEBF0FBECDBF0DE32D
:1014300010E065EF74E0CE0101960E94ED14CE013C
:1014400001960E94240DF82ECE0101960E94E81408
:1014500081E0F81609F441C06FEC71E085E993E092
:101460000E94AD156EE374E085E993E00E94771564
:101470006EE374E0CE0107960E9410156FEE74E0E3
:10148000CE0101960E94ED14BE016F5F7F4FCE0129
:1014900007960E9415147C01CE0101960E94E81463
:1014A000F7FC0CC06BED74E085E993E00E949B159E
:1014B00068EE73E080E090E00E946E0668EE73E0F4
:1014C00080E090E00E946E060150110909F4FEC010
:1014D000CE0107960E94E814ACCF68EE73E080E07E
:1014E00090E00E946E060DE310E061ED74E0CE0125
:1014F00001960E94ED14CE0101960E94240DF82E53
:10150000CE0101960E94E81481E0F81609F441C06A
:101510006FEC74E085E993E00E943A156EE374E0A5
:1015200085E993E00E9477156EE374E0CE0107969B
:101530000E94101569EC74E0CE0101960E94ED1432
:10154000BE016F5F7F4FCE0107960E9415147C018C
:10155000CE0101960E94E814F7FC0CC065EB74E024
:1015600085E993E00E949B1568EE73E080E090E0CF
:101570000E946E0668EE73E080E090E00E946E06C6
:101580000150110909F4A2C0CE0107960E94E81487
:10159000ACCF80912305813049F028F08230A1F44E
:1015A0006AE674E005C06BE974E002C06DE774E0C0
:1015B000CE0101960E94ED14CE0101960E94240DE9
:1015C000CE0101960E94E81468EE73E080E090E09E
:1015D0000E946E0680E197E2909322058093210598
:1015E00061E674E0CE0101960E94ED14CE010196F1
:1015F0000E94240DCE0101960E94E81480ED97E030
:10160000909322058093210509EB1BE080917B02DA
:1016100090917C02039751F062E370E080E090E0EB
:101620000E946E060150110989F74CC008E010E0D5
:1016300080917B0290917C02039709F043C060E2A5
:1016400075E085E993E00E943A1561ED71E085E966
:1016500093E00E94771581ED91E00E94750E88233A
:1016600019F069E175E014C06FE075E085E993E079
:101670000E943A156BED71E085E993E00E947715C1
:101680008BED91E00E94750E882399F06EEF74E067
:1016900085E993E00E949B152C960FB6F894DEBF67
:1016A0000FBECDBFDF91CF911F910F91FF90EF90B3
:1016B000089565E075E085E993E00E949B1501506F
:1016C000110951F461E085E00E9402068091F10465
:1016D0009091F2040E94E70D68EE73E080E090E0E4
:1016E0000E946E06A5CF1F93CF93DF931F92CDB7B5
:1016F000DEB7162F682F8EE049830E940206612F05
:101700008FE00E9402064981642F80E10F90DF91F3
:10171000CF911F910C94020680917B0290917C02E4
:10172000892B29F440E060E081E00E94730B8091F6
:101730007B0290917C020197D9F420918C02309128
:101740008D0281E090E0232B11F080E090E09093F7
:101750008D0280938C0280918C0290918D0240E0EA
:1017600060E0892B11F481E001C080E00E94730BDE
:1017700080917B0290917C020297D9F420918C0297
:1017800030918D0281E090E0232B11F080E090E019
:1017900090938D0280938C0280918C0290918D02A7
:1017A000892B11F440E001C041E060E080E00E943C
:1017B000730B80917B0290917C020397D9F4209166
:1017C0008C0230918D0281E090E0232B11F080E0BB
:1017D00090E090938D0280938C0280918C02909186
:1017E0008D0240E0892B11F460E001C061E080E0EF
:1017F0000C94730B0895BF92CF92DF92EF92FF92F9
:101800000F931F93CF93DF9388E60E94EF0F60E062
:1018100082E394E00E9450050E94441067E070E06B
:1018200088E690E00E94F90F82E394E00E940405AC
:10183000682F6F77862F82958F70CAEFE62E8C9F68
:10184000E00C112482E394E00E9404059C013327FC
:1018500064E0359527956A95E1F7C82EC29FC00CC4
:10186000112482E394E00E9404059C01332774E074
:10187000359527957A95E1F7B82EC29FB00C1124C3
:1018800082E394E00E94040582E394E00E94040550
:10189000AC015527E4E055954795EA95E1F7D82E38
:1018A000C49FD00C112482E394E00E9404059C01A3
:1018B0003327F4E035952795FA95E1F7F82EC29F86
:1018C000F00C112482E394E00E9404059C0133276C
:1018D000A4E035952795AA95E1F7082FC29F000D42
:1018E000112410E0E801C053D84F6D2D70E080E066
:1018F00090E04AE00E949D0F6FE285E993E00E942C
:1019000025156F2D70E080E090E04AE00E949D0F69
:101910006FE285E993E00E942515BE010D2E000CB3
:10192000880B990B4AE00E949D0F60E285E993E0E5
:101930000E9425156B2D70E080E090E04AE00E9447
:101940009D0F6AE385E993E00E9425156C2D70E0F8
:1019500080E090E04AE00E949D0F6AE385E993E011
:101960000E9425156E2D70E080E090E04AE00E9414
:101970009D0F6AEE71E085E993E00E94AD152D2D73
:1019800030E0E5E5F4E081E08E1B982F9E0F9F1577
:1019900028F49491290F311D3196F7CF82E08F15ED
:1019A00038F4C80183709927892B11F42F5F3F4FBA
:1019B0004DE651E0049FC001059F900D149F900DCE
:1019C0001124CD5CD740D695C795D695C7958C0F79
:1019D0009D1F0596820F931F67E070E00E94D02341
:1019E000FC01EE0FFF1FE45FFE4F6081718185E90E
:1019F00093E0DF91CF911F910F91FF90EF90DF90D7
:101A0000CF90BF900C947715EF92FF920F931F9396
:101A1000CF93DF931F92CDB7DEB77C01FC0100812D
:101A20001181C80169830E9469236981681719F0CF
:101A3000C8010E947123C7010F90DF91CF911F91C0
:101A40000F91FF90EF900895CF92DF92EF92FF9267
:101A50001F93CF93DF93EC018C819D81892B41F003
:101A600066E272E0888199810E941525892B51F1E7
:101A70008091280590912905DC01ED91FC9104806D
:101A8000F581E02D0995892B61F0809128059091D1
:101A90002905DC01ED91FC910680F781E02D099587
:101AA000E7CF6EE385E993E00E942515BE0185E945
:101AB00093E00E948915BE01809128059091290527
:101AC0000E9489150E94A8066B017C01D0E0CAE43F
:101AD0008091280590912905DC01ED91FC9104800D
:101AE000F581E02D0995892B09F454C080912805D2
:101AF00090912905DC01ED91FC910680F781E02DA4
:101B00000995D53950F0E9E8F4E0AEE3B4E09C2F54
:101B100001900D929A95E1F7DAE411E01D0FED2F97
:101B2000F0E0E25CFB4F8083E12FF0E0E25CFB4FF2
:101B300010826091190570911A058EE394E00E945D
:101B40002525892B71F064E372E085E993E00E941A
:101B5000AD156EE374E085E993E00E94771581E0AE
:101B60002EC060911B0570911C058EE394E00E94CD
:101B70002525892B71F068E372E085E993E00E94E6
:101B8000AD156EE374E085E993E00E94771582E07D
:101B900016C0D12F0E94A806AB01BC014C195D09EB
:101BA0006E097F098091210590912205A0E0B0E0A7
:101BB000481759076A077B0708F48ACF80E0DF914E
:101BC000CF911F91FF90EF90DF90CF900895CF932A
:101BD000DF93CDB7DEB72A970FB6F894DEBF0FBEFE
:101BE000CDBF8C0161E085E00E943206E0902605C1
:101BF000F0902705C7010E946923898767018FEF4D
:101C0000C81AD80AC6010E9469238A878091F40401
:101C10009091F5040E94692391E0811101C090E048
:101C20009093F304992399F069857A85600F711F69
:101C300078876F83FA82E982CE0101960E94040DB3
:101C40006885DA82C982CE0101960E94040D60EA9D
:101C500075E0CE0101960E94ED14CE0101960E941E
:101C6000240DCE0101960E94E81465E975E0CE01CD
:101C700001960E94ED14CE0101960E94240DCE0122
:101C800001960E94E8140FB6F894A8958091600020
:101C9000886180936000109260000FBE61E085E073
:101CA0000E9402066CE372E085E993E00E947715DA
:101CB0000CE310E068EE73E080E090E00E946E06B6
:101CC000A89567E771E085E993E00E94AD150150A2
:101CD000110981F798E088E10FB6F894A8958093F0
:101CE00060000FBE90936000FFCF0F931F93CF93C0
:101CF000DF9300D000D000D0CDB7DEB78C016CE808
:101D000075E0CE0101960E94ED14CE0101960E946D
:101D1000240DCE0101960E94E81468EE73E080E085
:101D200090E00E946E066FE775E080912805909123
:101D300029050E943A15B80180912805909129053E
:101D40000E94AD15009128051091290562E2C80195
:101D50000E942515C8010E94731568E873E180E0B0
:101D600090E00E946E068FE492E090931A058093B3
:101D7000190580911F059091200590931C05809373
:101D80001B0580E197E2909322058093210563E192
:101D900075E0CE0101960E94F614CE0101960E94D4
:101DA000240D182FCE0101960E94E8148091280579
:101DB000909129051130E1F464E775E00E943A152D
:101DC00080911D0590911E0590931A058093190529
:101DD00080911F059091200590931C0580931B0511
:101DE00080ED97E0909322058093210581E01BC050
:101DF00020911D0530911E0530931A052093190579
:101E000020911F053091200530931C0520931B0560
:101E100020ED37E0309322052093210569E675E037
:101E20000E943A1580E026960FB6F894DEBF0FBEEA
:101E3000CDBFDF91CF911F910F9108950F931F9305
:101E4000CF93DF93C4E0D1E08C0104501140C8016E
:101E50008C0F9D1F0E946923899381E0C830D807A9
:101E6000B1F784E091E0DF91CF911F910F91089538
:101E7000EF92FF920F931F93CF93DF937C018B011F
:101E800068E575E085E993E00E949B15C8E2D5E01E
:101E900068E572E0888199810E94AD1564E670E082
:101EA00080E090E00E946E06B801888199810E94CE
:101EB0002C1564E670E080E090E00E946E0662E619
:101EC00072E0888199810E94AD1568EE73E080E030
:101ED00090E00E946E06B701888199810E942C15BE
:101EE00064E670E080E090E00E946E060990D88180
:101EF000C02D6AE1CE010E942515CE010E94731506
:101F000064E670E080E090E00E946E06B80185E92A
:101F100093E00E94891566E475E085E993E00E94EC
:101F20009B1560ED77E080E090E0DF91CF911F910D
:101F30000F91FF90EF900C946E068F929F92AF924C
:101F4000BF920F931F93CF93DF93CDB7DEB7A197C7
:101F50000FB6F894DEBF0FBECDBF19A2423008F411
:101F60004AE08E010F5D1F4F842E912CA12CB12CC5
:101F7000A50194010E94F823E62FB901CA0101507E
:101F80001109EA3014F4E05D01C0E95CD801EC937A
:101F9000232B242B252B61F7B80185E993E00E94C0
:101FA0005E15A1960FB6F894DEBF0FBECDBFDF91D0
:101FB000CF911F910F91BF90AF909F908F900895F8
:101FC000CF93DF934AE00E949D0FEC0185E993E0F7
:101FD0000E9473158C0F9D1FDF91CF91089591E0A2
:101FE000909394038093550510929303109292035B
:101FF000089590916F039111FCCF613208F060E277
:1020000091E090936F0390936E032FEF20936D03F5
:1020100010926C03260F20936B0390936A039091A8
:102020006A03880F892B80936A038091690381304A
:1020300061F41092690380916A038093BB008091E0
:10204000BC0083FDF8CF85EC01C085EE8093BC0019
:1020500080916F038130E1F380916C03861710F457
:1020600060916C03A9E4B3E022E733E0F9018E2F1D
:10207000821B861718F48D918193F9CF109271030A
:1020800060937003862F08952091920390915505D7
:10209000213208F04AC080916F038111FCCF32E0F9
:1020A00030936F0331E030936E033FEF30936D0355
:1020B00010926C0320936B03A9E2B3E049E453E070
:1020C000FA013E2F341B321718F43D913193F9CFAA
:1020D00010926A0320916A03990F922B90936A03DE
:1020E00090916903913061F41092690390916A03B1
:1020F0009093BB009091BC0093FDF8CF95EC01C08C
:1021000095EE9093BC0090916F039230E1F3909123
:102110006D039F3F79F080916D03803241F0809193
:102120006D03803331F084E005C081E003C082E0BC
:1021300001C083E0109293031092920310929403D3
:1021400008951F93CF93DF9300D000D000D0CDB778
:10215000DEB763E375E0CE0101960E94ED14CE0177
:1021600001960E94240D182FCE0101960E94E814BA
:1021700081E0113009F080E026960FB6F894DEBFBA
:102180000FBECDBFDF91CF911F9108950F931F9385
:10219000CF93DF93182FD62F883020F01850C5E149
:1021A00003E102C0C4E102E18091280380620E9441
:1021B000EF0F8C2F0E943C080E944410909128033E
:1021C000892F806261E070E090E00E94F90F82E365
:1021D00094E00E940405D13041F4C1E0D0E001C098
:1021E000CC0F1A95EAF7C82B08C0C1E0D0E001C0B7
:1021F000CC0F1A95EAF7C095C82380912803806216
:102200000E94EF0F802F0E943C088C2F0E943C08F8
:10221000DF91CF911F910F910C9444100F931F9356
:10222000CF93DF93182FC62F883018F0185001E095
:1022300001C000E08091280380620E94EF0F802F90
:102240000E943C080E94441080912803806261E053
:1022500070E090E00E94F90F82E394E00E94040590
:10226000C11108C0C1E0D0E001C0CC0F1A95EAF757
:10227000C82B08C0C1E0D0E001C0CC0F1A95EAF726
:10228000C095C8238091280380620E94EF0F802FA1
:102290000E943C088C2F0E943C08DF91CF911F9137
:1022A0000F910C944410CF92DF92EF92FF92CF9354
:1022B000DF936C01990FEE08FF08F7FE14C06DE282
:1022C00085E993E00E942515EC0166277727CB016D
:1022D0006C197D098E099F094AE00E949D0F7C01BF
:1022E000EC0EFD1E06C04AE0C701B6010E949D0F1C
:1022F0007C0185E993E00E9473158E0D9F1DDF918F
:10230000CF91FF90EF90DF90CF9008958F929F92A2
:10231000AF92BF92CF92DF92EF92FF920F931F93F3
:10232000CF93DF93CDB7DEB72C970FB6F894DEBF0F
:102330000FBECDBF7C0165E672E0CE0101960E9422
:10234000101566E672E0CE0107960E941015AE01E8
:102350004F5F5F4FBE01695F7F4FC7010E94CE1282
:10236000CE0107960E94E814CE0101960E94E8145F
:1023700065E672E0CE0101960E94101562E671E0FA
:10238000CE0107960E941015AE014F5F5F4FBE0150
:10239000695F7F4FC7010E94CE12CE0107960E944F
:1023A000E814CE0101960E94E81465E672E0CE01C1
:1023B00001960E94101564E672E0CE0107960E9415
:1023C0001015AE014F5F5F4FBE01695F7F4FC701C0
:1023D0000E94CE12CE0107960E94E814CE0101960B
:1023E0000E94E81465E672E0CE0101960E94101585
:1023F0006BE272E0CE0107960E941015AE014F5FAE
:102400005F4FBE01695F7F4FC7010E94CE12CE01B0
:1024100007960E94E814CE0101960E94E814D701A5
:10242000CD90DC901197C114D10409F443C01496E7
:102430000D911C91159701151105E1F1460154010B
:10244000BFEF8B1A9B0AF5018081082E000C990BB7
:102450000E945D23892B99F7015011090C0D1D1D58
:10246000D8018C91082E000C990B0E945D23892BBA
:1024700081F4A8014F5F5F4F4A195B09F70155834B
:102480004483CA14DB0458F4B501C6010E94EF244A
:1024900006C00A151B0568F301501109E1CFD701E9
:1024A000ED91FC91119714968D919C911597E80FE1
:1024B000F91F10822C960FB6F894DEBF0FBECDBF69
:1024C000DF91CF911F910F91FF90EF90DF90CF9010
:1024D000BF90AF909F908F900895CF92DF92EF9230
:1024E000FF920F931F93CF93DF936C017A018B01BF
:1024F000C0E0D0E0CE15DF0589F0D8016D918D01E7
:10250000D601ED91FC910190F081E02DC601099575
:10251000892B11F47E0102C02196ECCFC701DF9117
:10252000CF911F910F91FF90EF90DF90CF90089582
:10253000CF93DF93EC0188819981009711F00E947D
:102540008F22198218821D821C821B821A82DF91BF
:10255000CF910895CF93DF93E1EFF5E08491EDED16
:10256000F5E0D491E9ECF5E0C491CC2391F0811130
:102570000E94D905EC2FF0E0EE0FFF1FEA54FA4F4E
:10258000A591B491EC91ED2381E090E021F480E0FD
:1025900002C080E090E0DF91CF9108952F923F92AA
:1025A0004F925F926F927F928F929F92AF92BF9263
:1025B000CF92DF92EF92FF920F931F93CF93DF930F
:1025C00000D000D0CDB7DEB7FC0144805580411467
:1025D000510409F413C1FB01648075806114710416
:1025E00009F40CC17A016B019C838B83FA01A480EE
:1025F000B580A618B708FC0100811181A114B104AF
:10260000C1F4F60160817181C8010E9425255C0139
:10261000892B09F4F3C0F7016081718144815581F0
:10262000C5010E94EF24F701048115810A0D1B1DCD
:10263000E8CFB7FE02C0480106C0FB012080318010
:102640004201C80148C0F60160817181C4010E9445
:1026500025252C01892B29F1320168187908A3015D
:10266000B401C8010E94EF24060D171DF701608117
:10267000718144815581C8010E94EF24F701848152
:102680009581080F191FF60184809580840C951C94
:10269000EB81FC81848195818A0D9B1D95838483C8
:1026A000D2CFB401C8010F900F900F900F90DF911F
:1026B000CF911F910F91FF90EF90DF90CF90BF903F
:1026C000AF909F908F907F906F905F904F903F90D2
:1026D0002F900C941E25B1010E942525009729F00A
:1026E000860D971D8A0C9B1CF6CF8414950409F463
:1026F00085C0EB81FC81828193818815990578F4EE
:10270000B4016F5F7F4FC8010E942024009709F435
:1027100075C0EB81FC819183808393828282EB81FF
:10272000FC81048115810150110917FD67C0F60174
:10273000248035802114310409F460C0EB81FC81D0
:10274000648075806114710409F458C062147304C4
:1027500008F454C00615170518F08301015011093B
:10276000EB81FC8140805180C20188248A94982C9E
:102770009201200F311F2817390758F0F6016081A8
:10278000718129833A830E94252529813A81009706
:1027900061F597FC33C0280C391CC201820D931DD2
:1027A000A30142195309BC018A0D9B1D0E94F82404
:1027B000EB81FC81848195818A0D9B1D95838483A7
:1027C00020813181F901E80FF91F1082EB81FC8132
:1027D00080819181F7016081718144815581880DEB
:1027E000991D0E94EF2484019ECFAC014419550924
:1027F0000417150708F04A010196BDCF0F900F90FE
:102800000F900F90DF91CF911F910F91FF90EF905C
:10281000DF90CF90BF90AF909F908F907F906F9000
:102820005F904F903F902F900895CF93DF93FC01DE
:1028300024813581232B71F0FB01DC01CD91DC91EA
:1028400060817181CE010E942525009719F08C1BB3
:102850009D0B02C08FEF9FEFDF91CF9108950F93F3
:102860001F93CF93DF93EC0188819981009729F022
:102870002A813B812617370788F48B016F5F7F4FD2
:102880000E942024009761F0998388831B830A8328
:102890002C813D81232B11F4FC01108281E001C0C9
:1028A00080E0DF91CF911F910F910895EF92FF92F9
:1028B0000F931F93CF93DF93EC01FB0184819581EC
:1028C000E080F1800C811D81E114F104B1F00097EA
:1028D000B9F0080F191FB801CE010E942F148823E8
:1028E00061F0288139818C819D81B701820F931F0E
:1028F0000E941E251D830C8303C0CE010E949812E6
:10290000CE01DF91CF911F910F91FF90EF9008952D
:10291000EF92FF920F931F93CF93DF93EC018B0104
:102920006115710551F0CB010E944C237C01BC0163
:10293000CE010E942F14811104C0CE010E94981272
:1029400007C0FD82EC82B801888199810E944523ED
:10295000CE01DF91CF911F910F91FF90EF900895DD
:10296000EF92FF920F931F93CF93DF93EC017B01C4
:102970008A01BA010E942F14811104C0CE010E9465
:10298000981207C01D830C83B701888199810E942A
:102990001E25CE01DF91CF911F910F91FF90EF90F7
:1029A0000895CF93DF93EC016115710559F0FB0198
:1029B00001900020E9F73197AF01461B570B0E94A9
:1029C000B01402C00E949812CE01DF91CF910895F9
:1029D000FC01808191810C948F22FC011182108274
:1029E00013821282158214820C948814FB01DC017C
:1029F00011961C921E9213961C921E921297159677
:102A00001C921E9214978617970749F06081718176
:102A10006115710521F0448155810C94B01408951D
:102A2000FC011182108213821282158214826115B8
:102A3000710551F0FB0101900020E9F73197AF01DA
:102A4000461B570B0C94B0140895DC01ED91FC91DA
:102A50000190F081E02D0994DC01ED91FC91DB0106
:102A600014964D915C9115976D917C910280F38144
:102A7000E02D0994EF92FF920F931F93CF93DF9372
:102A80008C017B01C0E0D0E0F701EC0FFD1F6491E9
:102A9000662361F0D801ED91FC910190F081E02D69
:102AA000C8010995892B11F02196EECFCE01DF9157
:102AB000CF911F910F91FF90EF90089561157105CF
:102AC00079F0FB0101900020E9F73197AF01461B37
:102AD000570BDC01ED91FC910280F381E02D09940C
:102AE00080E090E0089563E672E00C945E150F9329
:102AF0001F93CF93DF93EC010E945E158C01CE01F2
:102B00000E947315800F911FDF91CF911F910F913C
:102B100008950F931F93CF93DF93EC010E942C1520
:102B20008C01CE010E947315800F911FDF91CF9110
:102B30001F910F9108950F931F93CF93DF93EC0193
:102B40000E943A158C01CE010E947315800F911FCF
:102B5000DF91CF911F910F9108950C945E15CF9343
:102B6000DF93CDB7DEB7E9970FB6F894DEBF0FBE9F
:102B7000CDBF789484B5826084BD84B5816084BD06
:102B800085B5826085BD85B5816085BD80916E000B
:102B9000816080936E00109281008091810082603C
:102BA0008093810080918100816080938100809179
:102BB00080008160809380008091B1008460809368
:102BC000B1008091B00081608093B00080917A0064
:102BD000846080937A0080917A00826080937A008A
:102BE00080917A00816080937A0080917A00806879
:102BF00080937A001092C1000FB6F894A895809146
:102C00006000886180936000109260000FBEE091C8
:102C1000A503F091A60382E08083E091A103F091E7
:102C2000A2031082E091A303F091A40380E18083CA
:102C30001092AD03E091A903F091AA0386E080838E
:102C4000E091A703F091A803808180618083E091E7
:102C5000A703F091A803808188608083E091A70397
:102C6000F091A803808180688083E091A703F091B0
:102C7000A80380818F7D808368E273E085E993E01B
:102C80000E949B1561E086E00E94320660E086E0CB
:102C90000E94020661E08DE00E94320661E085E05C
:102CA0000E94320661E08EE00E94320661E080E11F
:102CB0000E94320661E08FE00E94320660E083E00D
:102CC0000E94320660E089E00E94320660E08CE0FB
:102CD0000E94320661E08CE00E94020661E082E11F
:102CE0000E94320661E082E10E94020640E060E05C
:102CF00081E00E94730B6CE271E080E090E00E9442
:102D00006E0640E061E080E00E94730B6CE271E0CF
:102D100080E090E00E946E0641E060E080E00E946A
:102D2000730B6CE271E080E090E00E946E0640E080
:102D300060E081E00E94730B81E080932803109291
:102D400071031092700310929303109292030E94E9
:102D5000E9098091280380620E94EF0F80E00E94C1
:102D60003C088FEF0E943C080E9444108091280389
:102D700080620E94EF0F81E00E943C088FEF0E946A
:102D80003C080E94441018E060E0812F0E940E1160
:102D900061E0812F0E94C6101F5F1031A9F710E07B
:102DA00061E0812F0E940E1160E0812F0E94C61009
:102DB0001F5F1830A9F710927103109270031092E0
:102DC0009303109292030E94E9090E94FB0B99E27F
:102DD00088E10FB6F894A895809360000FBE909399
:102DE000600080E090E00E9469238A3209F460C0AC
:102DF00065E173E085E993E00E949B1500E010E037
:102E000060E0C8010E94070A0F5F1F4F0F3F23E0D9
:102E10001207B1F76AE280E090E00E94070A14E02E
:102E2000E12E11E0F12E08EC10E0D7016D917D014B
:102E30001A830983CE0101960E94040D0F5F1F4F74
:102E40000C3C110591F7BCE4EB2EB1E0FB2E04E63F
:102E500010E0F70161917F011A830983CE01019689
:102E60000E94040D0F5F1F4F0137110591F767E0B6
:102E700073E085E993E00E949B1500E010E0602F6D
:102E80008EE091E00E94070AC8010E94531168EE8B
:102E900073E080E090E00E946E060F5F1F4F0F30DE
:102EA000110569F766EF72E085E993E00E949B15D2
:102EB0008EE091E00E9469238B3018F069EE72E099
:102EC00002C066ED72E085E993E00E949B1584EBF9
:102ED00096E09093030180930201809169008C60D9
:102EE00080936900E99A88EC90E00E941E0F68ECDC
:102EF00072E085E993E00E943A15609104017091B7
:102F0000050180910601909107010E94E00F69EB95
:102F100072E085E993E00E943A158E010F5F1F4F22
:102F20008091560590915705009711F48AE595E038
:102F30009801281B390BC9010E9453118091700020
:102F40008E7F809370008091B0008C7F8093B00062
:102F50008091B100877F8093B1008091B6008F7D12
:102F60008093B600809170008D7F80937000809177
:102F7000B10084608093B1008091B1008C7F809318
:102F8000B10086E090E090937102809370028CE231
:102F900091E0A0E0B0E080936C0290936D02A0936A
:102FA0006E02B0936F028CE89BE090936B0280936B
:102FB0006A021092730210927402109275021092BB
:102FC0007602109272028091700290917102809349
:102FD000B200809170008160809370006DEC462E8D
:102FE000512C75E5672E712CEBECAE2EB12CF0E96F
:102FF0008F2E912C22242394A6E3CA2EA5E0DA2E4C
:103000006DE672E085E993E00E949B1560E086E042
:103010000E94020660E08DE00E94020661E085E009
:103020000E9402060E94AA12892B39F064E670E021
:1030300080E090E00E946E06F5CF68EE73E080E0DD
:1030400090E00E946E0661E08DE00E94020660E062
:1030500085E00E94020668EE73E080E090E00E9446
:103060006E0661E086E00E94020660EB74E080E09C
:1030700090E00E946E0660E086E00E94020655E63F
:10308000E52EF12C0E94AA12892B61F431E0E31A9B
:10309000F10809F404C464E670E080E090E00E9466
:1030A0006E06F0CF6DE572E085E993E00E949B1516
:1030B000109251051092500510924F0510924E0536
:1030C00010924D0510924C055092530540925205B6
:1030D00080914205863108F053C070924D05609290
:1030E0004C05B0924F05A0924E05909251058092EA
:1030F000500590916800883058F021E08E3008F437
:1031000020E0422D01C0440F2A95EAF7242F01C088
:1031100024E0922B90936800883038F08E3040F095
:10312000863148F020E030E008C02DE630E005C0F0
:103130002BE630E002C02CE630E030934A052093C5
:103140004905883038F4522D01C0550F8A95EAF7A9
:10315000852F0EC0282F30E08E3018F4285031090A
:1031600002C02E503109822D01C0880F2A95EAF73E
:1031700080934B0580915205909153050197F1F78B
:103180008091500590915105892B39F1E091790298
:10319000F0917A0285E0E633F807F9F0309739F0DC
:1031A000A389B4899C918589809589238C9380918A
:1031B00054058E7F80935405109278021092770206
:1031C000D0927A02C0927902E0914905F0914A05C5
:1031D000908180914B05892B8083D0922905C092E4
:1031E00028054EE0E42EF12C8091280590912905C8
:1031F000DC01ED91FC910480F581E02D0995892B8E
:1032000061F08091280590912905DC01ED91FC91F8
:103210000680F781E02D0995E7CF60EC70E0C801EA
:103220000E94ED14C8010E94240D282FC80129AF67
:103230000E94E81429AD21113DC064EF71E080E0E7
:1032400090E00E946E06B1E0EB1AF10869F66DEBB2
:1032500070E0C8010E94ED14C8010E94240DC8014D
:103260000E94E81464E670E080E090E00E946E0640
:103270006AEB70E0C8010E94ED14C8010E94240DA1
:10328000C8010E94E81464E670E080E090E00E94CB
:103290006E0667EB70E0C8010E94ED14C8010E9441
:1032A000240DC8010E94E81464E670E080E090E01C
:1032B0000E946E0664EB70E0C8010E94ED14C80124
:1032C0000E94240DF82EC8010E94E814FF2009F482
:1032D000ECC267EA70E0C8010E94ED14C8010E94C8
:1032E000240DC8010E94E81464E670E080E090E0DC
:1032F0000E946E0662EA70E0C8010E94ED14C801E7
:103300000E94240DC8010E94E81464E670E080E089
:1033100090E00E946E0668E970E0C8010E94ED141A
:10332000C8010E94240DC8010E94E81464E670E000
:1033300080E090E00E946E066EE870E0C8010E9496
:10334000ED14C8010E94240DC8010E94E81464E62F
:1033500070E080E090E00E946E0664E870E0C801D2
:103360000E94ED14C8010E94240DC8010E94E814B7
:1033700064E670E080E090E00E946E0666E770E030
:10338000C8010E94ED14C8010E94240DC8010E94CA
:10339000E81464E670E080E090E00E946E0664E667
:1033A00070E080E090E00E946E0668E670E0C80180
:1033B0000E94ED14C8010E94240DC8010E94E81467
:1033C00060E472E085E993E00E949B1562E272E09E
:1033D00085E993E00E943A1580917B0290917C02EE
:1033E000029769F060E272E085E993E00E943A1585
:1033F00068EE73E080E090E00E946E06EDCF68EE2C
:1034000073E080E090E00E946E0663EC70E0C8011B
:103410000E94ED14C8010E94240DF82EC8010E94DC
:10342000E814E1E0FE1230C06DE070E08EE394E05D
:103430000E940A25009741F17C01F2E0EF0EF11C99
:103440006DE070E0C7010E940A25009711F0DC01D1
:103450001C92B7018EE394E00E941E2569E172E0A0
:1034600085E993E00E943A156EE374E080E395E00D
:103470000E94D11480E395E00E94861160E375E01C
:1034800085E993E00E9489156AEC70E0C8010E940A
:10349000ED14C8010E94240DF82EC8010E94E81402
:1034A000B1E0FB1241C06DE070E08EE394E00E9459
:1034B0000A250097C9F17C01E2E0EE0EF11C6DE0F7
:1034C00070E0C7010E940A25009711F0DC011C92F0
:1034D000B7018EE394E00E941E25EEE3F4E08191B3
:1034E000863661F090ED980F9A3020F4DF01AB56EC
:1034F000BF4F8C93B4E0E63BFB0789F76EE072E0C8
:1035000085E993E00E943A1564ED74E08AE295E063
:103510000E94D1148AE295E00E9486116AE275E069
:1035200085E993E00E9489153EE1F32E62ED70E09B
:10353000C8010E94ED14C8010E94240DE82EC801A4
:103540000E94E814EE2059F069E571E08EE394E002
:103550000E942525009719F0FC01328009C068EE11
:1035600073E080E090E00E946E06FA94F110DECFE6
:103570006DEF71E085E993E00E943A15632D85E9CE
:1035800093E00E9425156AEF71E085E993E00E94BF
:103590003A15F0E33F1203C06AEE71E00BC021E37D
:1035A000321203C067ED71E01BC032E3331207C073
:1035B0006BEB71E085E993E00E949B1521CD43E31D
:1035C000341203C063EB71E0F5CF54E3351203C04E
:1035D0006AEA71E0EFCF85E33812AAC566E971E0C7
:1035E00085E993E00E949B1580917B0290917C027B
:1035F000029709F005CD6BED70E0C8010E94ED1453
:10360000C8010E94240DC8010E94E8146CE571E015
:103610008EE394E00E942525009761F005960E94B4
:1036200027238336910531F08F3FAFEF9A0711F0D2
:10363000F82E01C0F12C6EE871E085E993E00E945C
:103640003A156F2D70E080E090E04AE00E949D0FF7
:1036500085E993E00E94731568EE73E080E090E0E6
:103660000E946E066EE771E085E993E00E949B156B
:1036700065E771E0C8010E94ED14C8010E94240DA5
:10368000F82EC8010E94E814B1E0FB1215C161E6F2
:1036900071E08EE394E00E942525009709F40CC1A7
:1036A0007C01E2E0EE0EF11C62E270E0C7010E94D4
:1036B0000A25009711F0DC011C92B7018EE394E01B
:1036C0000E941E256EE374E0CE0141960E94101503
:1036D00061E771E0C8010E94ED14B801CE01419686
:1036E0000E9415147C01C8010E94E814F7FC21C057
:1036F00061E671E08BEF94E00E9488146DE571E063
:1037000081E095E00E94881469E571E087E095E02A
:103710000E94881469E471E08DE095E00E948814AD
:1037200065E471E085E993E00E949B151092230502
:1037300061C061E471E0C8010E94ED14B801CE01DE
:1037400041960E9415147C01C8010E94E814F7FC00
:1037500020C06DE271E08BEF94E00E94881465E276
:1037600071E081E095E00E9488146DE171E087E0EE
:1037700095E00E94881469E071E08DE095E00E9478
:10378000881461E071E085E993E00E949B1581E077
:103790002FC06CEF70E0C8010E94ED14B801CE019B
:1037A00041960E9415147C01C8010E94E814F7FCA0
:1037B00021C063EF70E08BEF94E00E94881465E60F
:1037C00072E081E095E00E94D11465E672E087E046
:1037D00095E00E94D1146AEE70E08DE095E00E94C1
:1037E000881462EE70E085E993E00E949B1582E008
:1037F000809323056BEF74E085E993E00E948915BF
:10380000CE0141960E94E81457C06FEB73E0CE01E1
:1038100041960E94ED14BE016F5E7F4FCE018396EC
:103820000E9415146C01CE0141960E94E814D7FC49
:1038300003C2BE01675D7F4F85E993E00E942C15AE
:1038400066E771E085E993E00E94AD1567EB73E0F0
:1038500085E993E00E949B15BE01675D7F4FCE0115
:1038600047960E94F614BE016D5D7F4FCE014196D2
:103870000E94F614BE01695E7F4FCE0141960E9400
:10388000380FCE0141960E94E814CE0147960E945F
:10389000E81460ED77E080E090E00E946E06809191
:1038A000F1049091F2040E94E70D63E472E085E96F
:1038B00093E00E949B15FFCF66EB72E085E993E0F1
:1038C0000E949B150E94A110882331F067EA72E0E4
:1038D00085E993E00E949B150E94090A809170007F
:1038E0008E7F8093700040E061E080E00E94730B67
:1038F0000E94A80660937D0270937E0280937F02EF
:10390000909380020E94FB0B65E972E085E993E0E9
:103910000E949B1594E6292E91E0392EFE013196E6
:103920007F0128EE822E23E0922EA12CB12CC12CF7
:10393000D12C8091280380620E94EF0F83E10E94C6
:103940003C080E94441080912803806261E070E08E
:1039500090E00E94F90F82E394E00E940405BC010C
:1039600077270C2C02C0759567950A94E2F7617071
:1039700070E080E090E04AE00E949D0F85E993E0CE
:103980000E947315FFEFCF1ADF0A28E0C216D10498
:1039900081F663E473E085E993E00E949B15C12CF6
:1039A000D12C6CE373E085E993E00E943A15C601DF
:1039B0000E94531161E08C2D0E94C61060E971E0F5
:1039C00080E090E00E946E0660E08C2D0E94C610A0
:1039D00060E971E080E090E00E946E063FEFC31A5C
:1039E000D30A48E0C416D104E1F630921A052092B9
:1039F000190580911F059091200590931C058093D7
:103A00001B056DE473E0C8010E94ED14C8010E941B
:103A1000240DD82EC8010E94E81451E0D51275C0BB
:103A20008091280590912905DC01ED91FC9104809D
:103A3000F581E02D0995892BB9F1809128059091A8
:103A40002905DC01ED91FC910680F781E02D0995B7
:103A5000809324059093250589831A82C090EF04F2
:103A6000D090F004BFEFCB1ADB0AB6018BEE94E0E6
:103A70000E942F14882389F02091EB043091EC04EC
:103A80008091EF049091F004B701820F931F0E9480
:103A90001E25D092F004C092EF046AE070E080E04E
:103AA00090E00E946E06BCCF80911D0590911E058E
:103AB00090931A058093190580911F059091200518
:103AC00090931C0580931B056BE074E085E993E0FF
:103AD0000E943A156BEE74E085E993E00E94891527
:103AE0006BE671E0C7010E941015B7018BEE94E000
:103AF0000E9415146C01C7010E94E814D7FCF4C1A0
:103B0000670184E6682E712C11C080911D0590918B
:103B10001E0590931A058093190580911F059091B9
:103B2000200590931C0580931B05FEC1C3010E94D4
:103B30006923F60181936F01FFEF6F1A7F0A24E773
:103B40006216710499F7B701CE018F960E94101585
:103B50006FEC73E0CE0141960E94ED14CE014196C8
:103B60000E94240DD82ECE0141960E94E81431E027
:103B7000D31609F4D6C2BE01615D7F4F8BEE94E08F
:103B80000E94151497FD7BC162EF73E085E993E015
:103B90000E949B15BE01615D7F4FCE0189960E94F8
:103BA000F6146BEE74E0CE0183960E94F61467EC77
:103BB00073E0CE0141960E94ED14BE016F5E7F4F0F
:103BC000CE0183960E9415146C01CE0141960E948D
:103BD000E814D7FC1ACE88E290E0A0E0B0E0809331
:103BE000040190930501A0930601B093070181E0C1
:103BF00080938B0268E270E080E090E00E94E00F2A
:103C0000BE01675D7F4FCE0141960E94F614BE0152
:103C10006D5D7F4FCE0147960E94F614BE016F5E28
:103C20007F4FCE0147960E94380FCE0147960E94E3
:103C3000E814CE0141961AC16FEA73E0CE014196B5
:103C40000E94ED14BE016F5E7F4FCE0183960E94ED
:103C500015146C01CE0141960E94E814D7FC17C0E0
:103C600010928B0267EA73E085E993E00E949B154E
:103C7000BE01675D7F4FCE0147960E94F614BE01DC
:103C80006D5D7F4FCE0141960E94F614B1C063EA8C
:103C900073E0CE0141960E94ED14BE016F5E7F4F2E
:103CA000CE0183960E9415146C01CE0141960E94AC
:103CB000E814D7FC15C061E088E191E00E94070A92
:103CC00069E973E085E993E00E949B15BE01675D99
:103CD0007F4FCE0147960E94F61469E771E084C0D9
:103CE00064E973E0CE0141960E94ED14BE016F5E5F
:103CF0007F4FCE0183960E9415146C01CE01419630
:103D00000E94E814D7FC15C060E088E191E00E94B1
:103D1000070A69E873E085E993E00E949B15BE01FC
:103D2000675D7F4FCE0147960E94F61463E871E00D
:103D30005BC063E873E0CE0141960E94ED14BE01C2
:103D40006F5E7F4FCE0183960E9415146C01CE01E9
:103D500041960E94E814D7FC1AC061E084E091E02B
:103D60000E94070A61E088E091E00E94070A69E783
:103D700073E085E993E00E949B15BE01675D7F4F6C
:103D8000CE0147960E94F6146EE871E02DC062E7FE
:103D900073E0CE0141960E94ED14BE016F5E7F4F2D
:103DA000CE0183960E9415146C01CE0141960E94AB
:103DB000E814D7FC2BC060E084E091E00E94070A81
:103DC00060E088E091E00E94070A67E673E085E919
:103DD00093E00E949B15BE01675D7F4FCE01479621
:103DE0000E94F61468E971E0CE0141960E94101518
:103DF000BE01695E7F4FCE0141960E94380FCE0111
:103E000041960E94E814CE01479630C067E573E002
:103E100085E993E00E949B15BE01675D7F4FCE014F
:103E20004D960E94F61463EA71E0CE0141960E941D
:103E30001015BE016D5D7F4FCE0141960E94561454
:103E4000BC01CE0147960E94F614BE01635E7F4F0F
:103E5000CE0147960E94380FCE0147960E94E81483
:103E6000CE0141960E94E814CE014D960E94E814BE
:103E7000CE0183960E94E814CE0189962FC064EE8D
:103E800073E085E993E00E949B15BE01615D7F4F61
:103E9000CE014D960E94F61464EB71E0CE0141967E
:103EA0000E9410156BEE74E0CE0141960E945614EC
:103EB000BC01CE0147960E94F614BE01635E7F4F9F
:103EC000CE0147960E94380FCE0147960E94E81413
:103ED000CE0141960E94E814CE014D960E94E8144E
:103EE000CE018F960E94E81466EC71E0C7010E9433
:103EF0001015B7018BEE94E00E9415146C01C701F8
:103F00000E94E814D7FC0AC00E94A110882331F057
:103F100069ED73E085E993E00E949B1565E672E028
:103F20008BEE94E00E94D1140E94FB0B0E94A80625
:103F30002B013C0180918B02811104C088EC90E040
:103F40000E941E0F8091870290918802A0918902A1
:103F5000B0918A02A3019201281B390B4A0B5B0B1B
:103F60002DAB3EAB4FAB58AF209104013091050112
:103F70004091060150910701A8EEB3E00E947F2313
:103F80002DA93EA94FA958AD26173707480759074D
:103F9000E0F167E474E085E993E00E943A158091CE
:103FA000870290918802A0918902B0918A02A301B0
:103FB0009201281B390B4A0B5B0BCA01B901A50101
:103FC00094010E94F823CA01B9010E94E00F4092B7
:103FD0008702509288026092890270928A020E943F
:103FE000090A68E374E085E993E00E943A1580913C
:103FF000560590915705009711F48AE595E0A701C1
:10400000481B590BCA010E9453110E94A8062B019C
:104010003C018091830290918402A0918502B0912D
:104020008602A3019201281B390B4A0B5B0BDA01B4
:10403000C90180389843A140B10580F165E274E080
:1040400085E993E00E943A15809183029091840261
:10405000A0918502B0918602A3019201281B390B21
:104060004A0B5B0BCA01B901A50194010E94F82318
:10407000CA01B9010E94E00F41E060E080E00E94C7
:10408000730B409283025092840260928502709278
:10409000860240E061E080E00E94730B84E091E0E2
:1040A0000E94692380938202909181028917D1F046
:1040B00091E0811101C090E090938102811108C0CC
:1040C0006AE174E085E993E00E949B1561E007C016
:1040D00060E174E085E993E00E949B1560E082E175
:1040E0000E9402060E94A80640907D0250907E0227
:1040F00060907F0270908002DC01CB0184199509E9
:10410000A609B70981309C45A642B54008F0C7CB47
:1041100064EF71E080E090E00E946E060E94EC0384
:1041200006CC60E074E085E993E00E949B1523CD06
:1041300041E334120C94001857CA83E195E00E94C1
:10414000E8148DE095E00E94E81487E095E00E9475
:10415000E81481E095E00E94E8148BEF94E00E945F
:10416000E8148BEE94E00E94E8148AE295E00E9445
:10417000E81480E395E00E94E81480E491E09093D5
:104180003705809336058091790290917A028653A3
:10419000954071F4E0914905F0914A059081809134
:1041A0004B0580958923808310927A0210927902C0
:1041B0000895109298031092970388EE93E0A0E080
:1041C000B0E08093990390939A03A0939B03B093DC
:1041D0009C0320E231E0309396032093950325EC75
:1041E00030E03093A2032093A10324EC30E030931D
:1041F000A4032093A30320EC30E03093A603209384
:10420000A50321EC30E03093A8032093A70322EC10
:1042100030E03093AA032093A90326EC30E03093DA
:10422000AC032093AB031092AE031092AF03109235
:10423000B0031092B10310923504109234048093AD
:10424000360490933704A0933804B093390420E3E4
:1042500031E03093330420933204109239051092E8
:10426000380580933A0590933B05A0933C05B093A5
:104270003D0580E491E090933705809336051092D8
:104280004D0510924C0510924F0510924E0510925C
:1042900051051092500510925305109252056091ED
:1042A00054056E7F6D7F609354056695617081E063
:1042B000682787E00E94020661E087E00E943206DC
:1042C000EBEDF5E0E491E0934605E7ECF5E0E491F1
:1042D000F0E0EE0FFF1FE455FA4F85919491909313
:1042E00048058093470560E088E00E94320680918F
:1042F000540581FD04C061E088E00E94020688E068
:1043000080934205ECEDF5E0E491E0934305E8ECA1
:10431000F5E0E491F0E0EE0FFF1FEA54FA4F8591CB
:104320009491909345058093440565E672E080E39F
:1043300095E00E94101565E672E08AE295E00E9421
:1043400010151092EA0465E672E08BEE94E00E948C
:1043500010151092F2041092F1041092F30488E107
:1043600091E09093F5048093F40465E672E08BEF9E
:1043700094E00E94101565E672E081E095E00E94ED
:10438000101565E672E087E095E00E94101565E67D
:1043900072E08DE095E00E94101566E272E083E124
:1043A00095E00E94101529E232E030931A0520931F
:1043B00019058DE292E090931C0580931B053093C4
:1043C0001E0520931D059093200580931F0580ED09
:1043D00097E0909322058093210510922305109277
:1043E00025051092240580EA90E09093270580939C
:1043F00026050895CF93DF938230910510F482E073
:1044000090E0E0915805F091590520E030E0C0E0DF
:10441000D0E0309711F14081518148175907C0F021
:104420004817590761F482819381209719F09B8383
:104430008A832BC0909359058093580526C0211577
:10444000310519F04217530718F49A01BE01DF0134
:10445000EF010280F381E02DDCCF2115310509F158
:10446000281B390B2430310590F412968D919C91C4
:1044700013976115710521F0FB019383828304C0BA
:104480009093590580935805FD01329644C0FD0173
:10449000E20FF31F81939193225031092D933C93A6
:1044A0003AC02091560530915705232B41F42091B5
:1044B0000A0130910B013093570520935605209146
:1044C0000801309109012115310541F42DB73EB79E
:1044D00040910C0150910D01241B350BE0915605C4
:1044E000F0915705E217F307A0F42E1B3F0B281796
:1044F000390778F0AC014E5F5F4F2417350748F05D
:104500004E0F5F1F5093570540935605819391932B
:1045100002C0E0E0F0E0CF01DF91CF9108950F936A
:104520001F93CF93DF93009709F48CC0FC0132975F
:104530001382128200915805109159050115110539
:1045400081F420813181820F931F20915605309193
:1045500057052817390779F5F0935705E093560565
:1045600071C0D80140E050E0AE17BF0750F412967A
:104570002D913C911397AD012115310509F1D90118
:10458000F3CF9D01DA013383228360817181860F2D
:10459000971F8217930769F4EC0128813981260F50
:1045A000371F2E5F3F4F318320838A819B81938306
:1045B0008283452B29F4F0935905E093580542C0B6
:1045C0001396FC93EE931297ED01499159919E0138
:1045D000240F351FE217F30771F480819181840F56
:1045E000951F029611969C938E93828193811396C8
:1045F0009C938E931297E0E0F0E0D80112968D9193
:104600009C911397009719F0F8018C01F6CF8D91CA
:104610009C9198012E5F3F4F820F931F209156056A
:10462000309157052817390769F4309729F410920B
:1046300059051092580502C0138212821093570533
:1046400000935605DF91CF911F910F910895FC01C2
:1046500088279927E89421912032E9F3293010F036
:104660002E30C8F32B3241F02D3239F4689404C057
:104670000E945523820F911D219120532A30C0F3AF
:104680001EF4909581959F4F0895FB01DC010590E4
:104690000D920020E1F70895FC0105900020E9F754
:1046A000809590958E0F9F1F08957AE0979F902D8B
:1046B000879F802D910D1124089591110C946623EC
:1046C000803219F089508550C8F7089599278827B6
:1046D0000895F999FECF92BD81BDF89A992780B5CA
:1046E0000895262FF999FECF1FBA92BD81BD20BD36
:1046F0000FB6F894FA9AF99A0FBE019608950E949F
:10470000C123A59F900DB49F900DA49F800D911D76
:10471000112408952F923F924F925F926F927F9251
:104720008F929F92AF92BF92CF92DF92EF92FF92C1
:104730000F931F93CF93DF93CDB7DEB7CA1BDB0B6D
:104740000FB6F894DEBF0FBECDBF09942A88398812
:1047500048885F846E847D848C849B84AA84B98419
:10476000C884DF80EE80FD800C811B81AA81B98125
:10477000CE0FD11D0FB6F894DEBF0FBECDBFED0139
:104780000895A29FB001B39FC001A39F700D811D2A
:104790001124911DB29F700D811D1124911D08954A
:1047A000AA1BBB1B51E107C0AA1FBB1FA617B70757
:1047B00010F0A61BB70B881F991F5A95A9F7809573
:1047C0009095BC01CD01089597FB072E16F4009437
:1047D00007D077FD09D00E94D02307FC05D03EF416
:1047E000909581959F4F0895709561957F4F08959D
:1047F000A1E21A2EAA1BBB1BFD010DC0AA1FBB1FE5
:10480000EE1FFF1FA217B307E407F50720F0A21B56
:10481000B30BE40BF50B661F771F881F991F1A94C3
:1048200069F760957095809590959B01AC01BD01ED
:10483000CF010895EE0FFF1F0590F491E02D09942C
:10484000A0E0B0E0E6E2F4E20C948E23EC010097E5
:1048500021F4CB010E94FA21B8C0FC01E60FF71F3A
:104860009C0122503109E217F30708F4ACC0D901CA
:104870000D911C91119706171707B0F0053011051F
:1048800008F49FC0C80104978617970708F499C0D9
:1048900002501109061B170B019311936D937C9322
:1048A000CF010E948F228DC05B01A01AB10A4C017A
:1048B000800E911EA0915805B091590540E050E03E
:1048C000E12CF12C109709F44AC0A815B905D1F5CF
:1048D0006D907C901197630182E0C80ED11CCA14C0
:1048E000DB0480F1A3014A195B096A0182E0C80E6A
:1048F000D11C1296BC9012971396AC91B5E0CB16D2
:10490000D10440F0B282A38351834083D9016D93D7
:104910007C930AC00E5F1F4FC301800F911FF901E6
:1049200091838083EB2DFA2FE114F10431F0D7014C
:104930001396FC93EE93129744C0F0935905E093BD
:1049400058053FC08D919C9111974817590708F45D
:10495000AC017D0112960D90BC91A02DB3CF80913A
:1049600056059091570588159905E1F446175707A4
:10497000C8F48091080190910901009741F48DB726
:104980009EB740910C0150910D01841B950BE817C7
:10499000F907C8F4F0935705E0935605F9017183C0
:1049A00060830FC0CB010E94FA217C01009759F06F
:1049B000A801BE010E94EF24CE010E948F22C701F0
:1049C00004C0CE0102C080E090E0CDB7DEB7EEE0DB
:1049D0000C94AA2381E090E0F8940C943F25FB010D
:1049E000DC0102C001900D9241505040D8F708956B
:1049F0006817790768F4FB01DC01E40FF51FA40FC9
:104A0000B51F02C002900E9241505040D8F7089551
:104A10000C94EF24FC018191861721F08823D9F7AB
:104A2000992708953197CF010895FB01DC018D91FD
:104A3000019080190110D9F3990B0895FB01DC0155
:104A400001900D920020E1F70895FB01519155234B
:104A5000A9F0BF01DC014D9145174111E1F759F46F
:104A6000CD010190002049F04D9140154111C9F34D
:104A7000FB014111EFCF81E090E00197089513E031
:104A8000CFEFD2E004C0FE010E941A242196C0306C
:084A9000D107C9F7F894FFCF2C
:104A98001B041B047800000000005A058000ED018B
:104AA800F401FC0106020F0216021F0200000000BA
:104AB80083036D124C032A033E03CA03000000005F
:104AC8005005200518050405F504F404000000004D
:104AD80035046D128904A1041C0434042B373931C0
:104AE800363236333237303100302C004353513AA6
:104AF800002C22002B434D47523A00524543205583
:104B08004E52454144002E2E00454550524F4D20EF
:104B18004F4E00454550524F4D204F464600446584
:104B280076696365204F4E00446576696365204F5A
:104B3800464600556E6B6E6F776E20636F6D6D61C4
:104B48006E64200050686F6E652069676E6F7265CD
:104B58006420212120005245432052454144003E13
:104B6800007777772E79612E7275007777772E67C1
:104B78006F6F676C652E636F6D002020004D6F6E40
:104B88006461790054756573646179005765646E72
:104B9800657364617900546875727364617900465D
:104BA8007269646179005361747572646179005344
:104BB800756E646179006E6F004F4B0D004552525F
:104BC8004F520D005B315D005B325D0057616974C7
:104BD800207265626F6F7420363020736563002B16
:104BE80043495050494E470041542B434D47533D8C
:0A4BF8002200220D0A004F4B0000BE
:107E000085E08093810082E08093C00088E18093C8
:107E1000C10086E08093C20080E18093C40084B7F3
:107E200014BE81FFD0D089E2C8D0259A86E020E335
:107E30003CEF91E0309385002093840096BBB09B8B
:107E4000FECF1D9AA8958150A9F7DD24D394A5E013
:107E5000EA2EF1E1FF2EA4D0813421F481E0BED0DE
:107E600083E024C0823411F484E103C0853419F422
:107E700085E0B4D08AC08535A1F492D0082F10E0F7
:107E800010930102009300028BD090E0982F882776
:107E9000802B912B880F991F9093010280930002F1
:107EA00073C0863529F484E099D080E071D06DC02C
:107EB000843609F043C07CD0E0910002F0910102C9
:107EC00083E080935700E895C0E0D1E069D08993C2
:107ED000809102028150809302028823B9F778D002
:107EE00007B600FCFDCF4091000250910102A0E0D6
:107EF000B1E02C9130E011968C91119790E0982F81
:107F00008827822B932B1296FA010C01D0925700EE
:107F1000E89511244E5F5F4FF1E0A038BF0749F7A5
:107F2000E0910002F0910102E0925700E89507B657
:107F300000FCFDCFF0925700E89527C08437B9F4D4
:107F400037D046D0E0910002F09101023196F093D3
:107F50000102E09300023197E4918E2F19D08091B5
:107F60000202815080930202882361F70EC0853798
:107F700039F42ED08EE10CD085E90AD08FE096CF6F
:107F8000813511F488E019D023D080E101D063CF8E
:107F9000982F8091C00085FFFCCF9093C600089574
:107FA000A8958091C00087FFFCCF8091C6000895FE
:107FB000F7DFF6DF80930202F3CFE0E6F0E098E12E
:107FC00090838083089580E0F8DFEE27FF270994EF
:107FD000E7DF803209F0F7DF84E1DACF1F93182F53
:0C7FE000DFDF1150E9F7F4DF1F91089576
:0400000300007E007B
:00000001FF